:020000020000FC
:100000000FEF0DBF08E00EBF00E00093C1000FEF3F
:100010000AB900E00BB90FEF07B900E008B900E03A
:1000200004B90FEF05B90000000013B130E040E063
:1000300050E060E003B11017E9F30E94590003B1EA
:100040001017C1F3102F00FF0E94350001FF0E941E
:100050003A0002FF0E943D0003FF0E94420004FF9D
:100060000E9451000E944900E5CF3395303169F07C
:100070003BB908953A953BB908954395403139F01D
:100080004BB908954A954BB9089530E0089540E082
:100090000895542F550F550F550F550F530F5BB93A
:1000A00008950E945700630F640F68B9089560E0D7
:1000B000089520E023952030E9F720E023952030B3
:1000C000E9F720E023952030E9F720E02395203060
:0400D000E9F70895AF
:00000001FF
